{"abi":[{"type":"constructor","inputs":[],"stateMutability":"nonpayable"},{"type":"function","name":"DEFAULT_ADMIN_ROLE","inputs":[],"outputs":[{"name":"","type":"bytes32","internalType":"bytes32"}],"stateMutability":"view"},{"type":"function","name":"MINTER_ROLE","inputs":[],"outputs":[{"name":"","type":"bytes32","internalType":"bytes32"}],"stateMutability":"view"},{"type":"function","name":"PAUSER_ROLE","inputs":[],"outputs":[{"name":"","type":"bytes32","internalType":"bytes32"}],"stateMutability":"view"},{"type":"function","name":"allowance","inputs":[{"name":"owner","type":"address","internalType":"address"},{"name":"spender","type":"address","internalType":"address"}],"outputs":[{"name":"","type":"uint256","internalType":"uint256"}],"stateMutability":"view"},{"type":"function","name":"approve","inputs":[{"name":"spender","type":"address","internalType":"address"},{"name":"value","type":"uint256","internalType":"uint256"}],"outputs":[{"name":"","type":"bool","internalType":"bool"}],"stateMutability":"nonpayable"},{"type":"function","name":"balanceOf","inputs":[{"name":"account","type":"address","internalType":"address"}],"outputs":[{"name":"","type":"uint256","internalType":"uint256"}],"stateMutability":"view"},{"type":"function","name":"burn","inputs":[{"name":"amount","type":"uint256","internalType":"uint256"}],"outputs":[],"stateMutability":"nonpayable"},{"type":"function","name":"burnFrom","inputs":[{"name":"account","type":"address","internalType":"address"},{"name":"amount","type":"uint256","internalType":"uint256"}],"outputs":[],"stateMutability":"nonpayable"},{"type":"function","name":"decimals","inputs":[],"outputs":[{"name":"","type":"uint8","internalType":"uint8"}],"stateMutability":"view"},{"type":"function","name":"getRoleAdmin","inputs":[{"name":"role","type":"bytes32","internalType":"bytes32"}],"outputs":[{"name":"","type":"bytes32","internalType":"bytes32"}],"stateMutability":"view"},{"type":"function","name":"grantRole","inputs":[{"name":"role","type":"bytes32","internalType":"bytes32"},{"name":"account","type":"address","internalType":"address"}],"outputs":[],"stateMutability":"nonpayable"},{"type":"function","name":"hasRole","inputs":[{"name":"role","type":"bytes32","internalType":"bytes32"},{"name":"account","type":"address","internalType":"address"}],"outputs":[{"name":"","type":"bool","internalType":"bool"}],"stateMutability":"view"},{"type":"function","name":"mint","inputs":[{"name":"to","type":"address","internalType":"address"},{"name":"amount","type":"uint256","internalType":"uint256"}],"outputs":[],"stateMutability":"nonpayable"},{"type":"function","name":"name","inputs":[],"outputs":[{"name":"","type":"string","internalType":"string"}],"stateMutability":"view"},{"type":"function","name":"pause","inputs":[],"outputs":[],"stateMutability":"nonpayable"},{"type":"function","name":"paused","inputs":[],"outputs":[{"name":"","type":"bool","internalType":"bool"}],"stateMutability":"view"},{"type":"function","name":"renounceRole","inputs":[{"name":"role","type":"bytes32","internalType":"bytes32"},{"name":"callerConfirmation","type":"address","internalType":"address"}],"outputs":[],"stateMutability":"nonpayable"},{"type":"function","name":"revokeRole","inputs":[{"name":"role","type":"bytes32","internalType":"bytes32"},{"name":"account","type":"address","internalType":"address"}],"outputs":[],"stateMutability":"nonpayable"},{"type":"function","name":"supportsInterface","inputs":[{"name":"interfaceId","type":"bytes4","internalType":"bytes4"}],"outputs":[{"name":"","type":"bool","internalType":"bool"}],"stateMutability":"view"},{"type":"function","name":"symbol","inputs":[],"outputs":[{"name":"","type":"string","internalType":"string"}],"stateMutability":"view"},{"type":"function","name":"totalSupply","inputs":[],"outputs":[{"name":"","type":"uint256","internalType":"uint256"}],"stateMutability":"view"},{"type":"function","name":"transfer","inputs":[{"name":"to","type":"address","internalType":"address"},{"name":"value","type":"uint256","internalType":"uint256"}],"outputs":[{"name":"","type":"bool","internalType":"bool"}],"stateMutability":"nonpayable"},{"type":"function","name":"transferFrom","inputs":[{"name":"from","type":"address","internalType":"address"},{"name":"to","type":"address","internalType":"address"},{"name":"value","type":"uint256","internalType":"uint256"}],"outputs":[{"name":"","type":"bool","internalType":"bool"}],"stateMutability":"nonpayable"},{"type":"function","name":"unpause","inputs":[],"outputs":[],"stateMutability":"nonpayable"},{"type":"event","name":"Approval","inputs":[{"name":"owner","type":"address","indexed":true,"internalType":"address"},{"name":"spender","type":"address","indexed":true,"internalType":"address"},{"name":"value","type":"uint256","indexed":false,"internalType":"uint256"}],"anonymous":false},{"type":"event","name":"Paused","inputs":[{"name":"account","type":"address","indexed":false,"internalType":"address"}],"anonymous":false},{"type":"event","name":"RoleAdminChanged","inputs":[{"name":"role","type":"bytes32","indexed":true,"internalType":"bytes32"},{"name":"previousAdminRole","type":"bytes32","indexed":true,"internalType":"bytes32"},{"name":"newAdminRole","type":"bytes32","indexed":true,"internalType":"bytes32"}],"anonymous":false},{"type":"event","name":"RoleGranted","inputs":[{"name":"role","type":"bytes32","indexed":true,"internalType":"bytes32"},{"name":"account","type":"address","indexed":true,"internalType":"address"},{"name":"sender","type":"address","indexed":true,"internalType":"address"}],"anonymous":false},{"type":"event","name":"RoleRevoked","inputs":[{"name":"role","type":"bytes32","indexed":true,"internalType":"bytes32"},{"name":"account","type":"address","indexed":true,"internalType":"address"},{"name":"sender","type":"address","indexed":true,"internalType":"address"}],"anonymous":false},{"type":"event","name":"Transfer","inputs":[{"name":"from","type":"address","indexed":true,"internalType":"address"},{"name":"to","type":"address","indexed":true,"internalType":"address"},{"name":"value","type":"uint256","indexed":false,"internalType":"uint256"}],"anonymous":false},{"type":"event","name":"Unpaused","inputs":[{"name":"account","type":"address","indexed":false,"internalType":"address"}],"anonymous":false},{"type":"error","name":"AccessControlBadConfirmation","inputs":[]},{"type":"error","name":"AccessControlUnauthorizedAccount","inputs":[{"name":"account","type":"address","internalType":"address"},{"name":"neededRole","type":"bytes32","internalType":"bytes32"}]},{"type":"error","name":"ERC20InsufficientAllowance","inputs":[{"name":"spender","type":"address","internalType":"address"},{"name":"allowance","type":"uint256","internalType":"uint256"},{"name":"needed","type":"uint256","internalType":"uint256"}]},{"type":"error","name":"ERC20InsufficientBalance","inputs":[{"name":"sender","type":"address","internalType":"address"},{"name":"balance","type":"uint256","internalType":"uint256"},{"name":"needed","type":"uint256","internalType":"uint256"}]},{"type":"error","name":"ERC20InvalidApprover","inputs":[{"name":"approver","type":"address","internalType":"address"}]},{"type":"error","name":"ERC20InvalidReceiver","inputs":[{"name":"receiver","type":"address","internalType":"address"}]},{"type":"error","name":"ERC20InvalidSender","inputs":[{"name":"sender","type":"address","internalType":"address"}]},{"type":"error","name":"ERC20InvalidSpender","inputs":[{"name":"spender","type":"address","internalType":"address"}]},{"type":"error","name":"EnforcedPause","inputs":[]},{"type":"error","name":"ExpectedPause","inputs":[]}],"bytecode":{"object":"0x608060405234801562000010575f80fd5b506040518060400160405280600d81526020016c2830b930b4bd37902a37b5b2b760991b8152506040518060400160405280600781526020016650415241495a4f60c81b815250816003908162000068919062000413565b50600462000077828262000413565b506200008891505f90503362000112565b50620000b57f65d7a28e3265b37a6474929f336521b332c1681b933f6cb9f3376673440d862a3362000112565b50620000e27f9f2df0fed2c77648de5860a4cc508cd0818c85b8b8a1ab4ceeef8d981c8956a63362000112565b506200010c33620000f66012600a620005e8565b6200010690633b9aca00620005ff565b620001c2565b6200062f565b5f8281526006602090815260408083206001600160a01b038516845290915281205460ff16620001b9575f8381526006602090815260408083206001600160a01b03861684529091529020805460ff19166001179055620001703390565b6001600160a01b0316826001600160a01b0316847f2f8788117e7eff1d82e926ec794901d17c78024a50270940304540a733656f0d60405160405180910390a4506001620001bc565b505f5b92915050565b6001600160a01b038216620001f15760405163ec442f0560e01b81525f60048201526024015b60405180910390fd5b620001fe5f838362000202565b5050565b6200020c6200021e565b6200021983838362000245565b505050565b60055460ff1615620002435760405163d93c066560e01b815260040160405180910390fd5b565b6001600160a01b03831662000273578060025f82825462000267919062000619565b90915550620002e59050565b6001600160a01b0383165f9081526020819052604090205481811015620002c75760405163391434e360e21b81526001600160a01b03851660048201526024810182905260448101839052606401620001e8565b6001600160a01b0384165f9081526020819052604090209082900390555b6001600160a01b038216620003035760028054829003905562000321565b6001600160a01b0382165f9081526020819052604090208054820190555b816001600160a01b0316836001600160a01b03167fddf252ad1be2c89b69c2b068fc378daa952ba7f163c4a11628f55a4df523b3ef836040516200036791815260200190565b60405180910390a3505050565b634e487b7160e01b5f52604160045260245ffd5b600181811c908216806200039d57607f821691505b602082108103620003bc57634e487b7160e01b5f52602260045260245ffd5b50919050565b601f82111562000219575f81815260208120601f850160051c81016020861015620003ea5750805b601f850160051c820191505b818110156200040b57828155600101620003f6565b505050505050565b81516001600160401b038111156200042f576200042f62000374565b620004478162000440845462000388565b84620003c2565b602080601f8311600181146200047d575f8415620004655750858301515b5f19600386901b1c1916600185901b1785556200040b565b5f85815260208120601f198616915b82811015620004ad578886015182559484019460019091019084016200048c565b5085821015620004cb57878501515f19600388901b60f8161c191681555b5050505050600190811b01905550565b634e487b7160e01b5f52601160045260245ffd5b600181815b808511156200052f57815f1904821115620005135762000513620004db565b808516156200052157918102915b93841c9390800290620004f4565b509250929050565b5f826200054757506001620001bc565b816200055557505f620001bc565b81600181146200056e5760028114620005795762000599565b6001915050620001bc565b60ff8411156200058d576200058d620004db565b50506001821b620001bc565b5060208310610133831016604e8410600b8410161715620005be575081810a620001bc565b620005ca8383620004ef565b805f1904821115620005e057620005e0620004db565b029392505050565b5f620005f860ff84168362000537565b9392505050565b8082028115828204841417620001bc57620001bc620004db565b80820180821115620001bc57620001bc620004db565b610d6c806200063d5f395ff3fe608060405234801561000f575f80fd5b5060043610610153575f3560e01c80635c975abb116100bf578063a217fddf11610079578063a217fddf146102bc578063a9059cbb146102c3578063d5391393146102d6578063d547741f146102fd578063dd62ed3e14610310578063e63ab1e914610348575f80fd5b80635c975abb1461025357806370a082311461025e57806379cc6790146102865780638456cb591461029957806391d14854146102a157806395d89b41146102b4575f80fd5b80632f2ff15d116101105780632f2ff15d146101ee578063313ce5671461020357806336568abe146102125780633f4ba83a1461022557806340c10f191461022d57806342966c6814610240575f80fd5b806301ffc9a71461015757806306fdde031461017f578063095ea7b31461019457806318160ddd146101a757806323b872dd146101b9578063248a9ca3146101cc575b5f80fd5b61016a610165366004610b68565b61036f565b60405190151581526020015b60405180910390f35b6101876103a5565b6040516101769190610b96565b61016a6101a2366004610bfc565b610435565b6002545b604051908152602001610176565b61016a6101c7366004610c24565b61044c565b6101ab6101da366004610c5d565b5f9081526006602052604090206001015490565b6102016101fc366004610c74565b61046f565b005b60405160128152602001610176565b610201610220366004610c74565b610499565b6102016104d1565b61020161023b366004610bfc565b610506565b61020161024e366004610c5d565b61053a565b60055460ff1661016a565b6101ab61026c366004610c9e565b6001600160a01b03165f9081526020819052604090205490565b610201610294366004610bfc565b610544565b61020161055d565b61016a6102af366004610c74565b61058f565b6101876105b9565b6101ab5f81565b61016a6102d1366004610bfc565b6105c8565b6101ab7f9f2df0fed2c77648de5860a4cc508cd0818c85b8b8a1ab4ceeef8d981c8956a681565b61020161030b366004610c74565b6105d5565b6101ab61031e366004610cb7565b6001600160a01b039182165f90815260016020908152604080832093909416825291909152205490565b6101ab7f65d7a28e3265b37a6474929f336521b332c1681b933f6cb9f3376673440d862a81565b5f6001600160e01b03198216637965db0b60e01b148061039f57506301ffc9a760e01b6001600160e01b03198316145b92915050565b6060600380546103b490610cdf565b80601f01602080910402602001604051908101604052809291908181526020018280546103e090610cdf565b801561042b5780601f106104025761010080835404028352916020019161042b565b820191905f5260205f20905b81548152906001019060200180831161040e57829003601f168201915b5050505050905090565b5f336104428185856105f9565b5060019392505050565b5f33610459858285610606565b610464858585610681565b506001949350505050565b5f82815260066020526040902060010154610489816106de565b61049383836106e8565b50505050565b6001600160a01b03811633146104c25760405163334bd91960e11b815260040160405180910390fd5b6104cc8282610779565b505050565b7f65d7a28e3265b37a6474929f336521b332c1681b933f6cb9f3376673440d862a6104fb816106de565b6105036107e4565b50565b7f9f2df0fed2c77648de5860a4cc508cd0818c85b8b8a1ab4ceeef8d981c8956a6610530816106de565b6104cc8383610836565b610503338261086a565b61054f823383610606565b610559828261086a565b5050565b7f65d7a28e3265b37a6474929f336521b332c1681b933f6cb9f3376673440d862a610587816106de565b61050361089e565b5f9182526006602090815260408084206001600160a01b0393909316845291905290205460ff1690565b6060600480546103b490610cdf565b5f33610442818585610681565b5f828152600660205260409020600101546105ef816106de565b6104938383610779565b6104cc83838360016108db565b6001600160a01b038381165f908152600160209081526040808320938616835292905220545f19811015610493578181101561067357604051637dc7a0d960e11b81526001600160a01b038416600482015260248101829052604481018390526064015b60405180910390fd5b61049384848484035f6108db565b6001600160a01b0383166106aa57604051634b637e8f60e11b81525f600482015260240161066a565b6001600160a01b0382166106d35760405163ec442f0560e01b81525f600482015260240161066a565b6104cc8383836109ad565b61050381336109c0565b5f6106f3838361058f565b610772575f8381526006602090815260408083206001600160a01b03861684529091529020805460ff1916600117905561072a3390565b6001600160a01b0316826001600160a01b0316847f2f8788117e7eff1d82e926ec794901d17c78024a50270940304540a733656f0d60405160405180910390a450600161039f565b505f61039f565b5f610784838361058f565b15610772575f8381526006602090815260408083206001600160a01b0386168085529252808320805460ff1916905551339286917ff6391f5c32d9c69d2a47ea670b442974b53935d1edc7fd64eb21e047a839171b9190a450600161039f565b6107ec6109f9565b6005805460ff191690557f5db9ee0a495bf2e6ff9c91a7834c1ba4fdd244a5e8aa4e537bd38aeae4b073aa335b6040516001600160a01b03909116815260200160405180910390a1565b6001600160a01b03821661085f5760405163ec442f0560e01b81525f600482015260240161066a565b6105595f83836109ad565b6001600160a01b03821661089357604051634b637e8f60e11b81525f600482015260240161066a565b610559825f836109ad565b6108a6610a1e565b6005805460ff191660011790557f62e78cea01bee320cd4e420270b5ea74000d11b0c9f74754ebdbfc544b05a2586108193390565b6001600160a01b0384166109045760405163e602df0560e01b81525f600482015260240161066a565b6001600160a01b03831661092d57604051634a1406b160e11b81525f600482015260240161066a565b6001600160a01b038085165f908152600160209081526040808320938716835292905220829055801561049357826001600160a01b0316846001600160a01b03167f8c5be1e5ebec7d5bd14f71427d1e84f3dd0314c0f7b2291e5b200ac8c7c3b9258460405161099f91815260200190565b60405180910390a350505050565b6109b5610a1e565b6104cc838383610a42565b6109ca828261058f565b6105595760405163e2517d3f60e01b81526001600160a01b03821660048201526024810183905260440161066a565b60055460ff16610a1c57604051638dfc202b60e01b815260040160405180910390fd5b565b60055460ff1615610a1c5760405163d93c066560e01b815260040160405180910390fd5b6001600160a01b038316610a6c578060025f828254610a619190610d17565b90915550610adc9050565b6001600160a01b0383165f9081526020819052604090205481811015610abe5760405163391434e360e21b81526001600160a01b0385166004820152602481018290526044810183905260640161066a565b6001600160a01b0384165f9081526020819052604090209082900390555b6001600160a01b038216610af857600280548290039055610b16565b6001600160a01b0382165f9081526020819052604090208054820190555b816001600160a01b0316836001600160a01b03167fddf252ad1be2c89b69c2b068fc378daa952ba7f163c4a11628f55a4df523b3ef83604051610b5b91815260200190565b60405180910390a3505050565b5f60208284031215610b78575f80fd5b81356001600160e01b031981168114610b8f575f80fd5b9392505050565b5f6020808352835180828501525f5b81811015610bc157858101830151858201604001528201610ba5565b505f604082860101526040601f19601f8301168501019250505092915050565b80356001600160a01b0381168114610bf7575f80fd5b919050565b5f8060408385031215610c0d575f80fd5b610c1683610be1565b946020939093013593505050565b5f805f60608486031215610c36575f80fd5b610c3f84610be1565b9250610c4d60208501610be1565b9150604084013590509250925092565b5f60208284031215610c6d575f80fd5b5035919050565b5f8060408385031215610c85575f80fd5b82359150610c9560208401610be1565b90509250929050565b5f60208284031215610cae575f80fd5b610b8f82610be1565b5f8060408385031215610cc8575f80fd5b610cd183610be1565b9150610c9560208401610be1565b600181811c90821680610cf357607f821691505b602082108103610d1157634e487b7160e01b5f52602260045260245ffd5b50919050565b8082018082111561039f57634e487b7160e01b5f52601160045260245ffdfea26469706673582212206289a0fbe139e3b0266cdd32b40f88a91d1a9a4cbeabcac58970988d1949301164736f6c63430008140033","linkReferences":{}},"methodIdentifiers":{"DEFAULT_ADMIN_ROLE()":"a217fddf","MINTER_ROLE()":"d5391393","PAUSER_ROLE()":"e63ab1e9","allowance(address,address)":"dd62ed3e","approve(address,uint256)":"095ea7b3","balanceOf(address)":"70a08231","burn(uint256)":"42966c68","burnFrom(address,uint256)":"79cc6790","decimals()":"313ce567","getRoleAdmin(bytes32)":"248a9ca3","grantRole(bytes32,address)":"2f2ff15d","hasRole(bytes32,address)":"91d14854","mint(address,uint256)":"40c10f19","name()":"06fdde03","pause()":"8456cb59","paused()":"5c975abb","renounceRole(bytes32,address)":"36568abe","revokeRole(bytes32,address)":"d547741f","supportsInterface(bytes4)":"01ffc9a7","symbol()":"95d89b41","totalSupply()":"18160ddd","transfer(address,uint256)":"a9059cbb","transferFrom(address,address,uint256)":"23b872dd","unpause()":"3f4ba83a"},"id":30}