{"abi":[{"type":"constructor","inputs":[{"name":"_paraizoToken","type":"address","internalType":"address"}],"stateMutability":"nonpayable"},{"type":"function","name":"REWARD_PER_TOKEN","inputs":[],"outputs":[{"name":"","type":"uint256","internalType":"uint256"}],"stateMutability":"view"},{"type":"function","name":"applyStreamingBonus","inputs":[{"name":"_streamer","type":"address","internalType":"address"}],"outputs":[],"stateMutability":"nonpayable"},{"type":"function","name":"calculateRewards","inputs":[{"name":"_user","type":"address","internalType":"address"}],"outputs":[{"name":"","type":"uint256","internalType":"uint256"}],"stateMutability":"view"},{"type":"function","name":"claimRewards","inputs":[],"outputs":[],"stateMutability":"nonpayable"},{"type":"function","name":"getTotalRewards","inputs":[{"name":"_user","type":"address","internalType":"address"}],"outputs":[{"name":"","type":"uint256","internalType":"uint256"}],"stateMutability":"view"},{"type":"function","name":"owner","inputs":[],"outputs":[{"name":"","type":"address","internalType":"address"}],"stateMutability":"view"},{"type":"function","name":"paraizoToken","inputs":[],"outputs":[{"name":"","type":"address","internalType":"contract IERC20"}],"stateMutability":"view"},{"type":"function","name":"renounceOwnership","inputs":[],"outputs":[],"stateMutability":"nonpayable"},{"type":"function","name":"rewardRate","inputs":[],"outputs":[{"name":"","type":"uint256","internalType":"uint256"}],"stateMutability":"view"},{"type":"function","name":"stake","inputs":[{"name":"_amount","type":"uint256","internalType":"uint256"}],"outputs":[],"stateMutability":"nonpayable"},{"type":"function","name":"stakes","inputs":[{"name":"","type":"address","internalType":"address"}],"outputs":[{"name":"amount","type":"uint256","internalType":"uint256"},{"name":"startTime","type":"uint256","internalType":"uint256"},{"name":"rewardPoints","type":"uint256","internalType":"uint256"}],"stateMutability":"view"},{"type":"function","name":"totalStaked","inputs":[],"outputs":[{"name":"","type":"uint256","internalType":"uint256"}],"stateMutability":"view"},{"type":"function","name":"transferOwnership","inputs":[{"name":"newOwner","type":"address","internalType":"address"}],"outputs":[],"stateMutability":"nonpayable"},{"type":"function","name":"unstake","inputs":[{"name":"_amount","type":"uint256","internalType":"uint256"}],"outputs":[],"stateMutability":"nonpayable"},{"type":"function","name":"updateRewardRate","inputs":[{"name":"_newRate","type":"uint256","internalType":"uint256"}],"outputs":[],"stateMutability":"nonpayable"},{"type":"event","name":"OwnershipTransferred","inputs":[{"name":"previousOwner","type":"address","indexed":true,"internalType":"address"},{"name":"newOwner","type":"address","indexed":true,"internalType":"address"}],"anonymous":false},{"type":"event","name":"RewardRateUpdated","inputs":[{"name":"newRate","type":"uint256","indexed":false,"internalType":"uint256"}],"anonymous":false},{"type":"event","name":"RewardsClaimed","inputs":[{"name":"user","type":"address","indexed":true,"internalType":"address"},{"name":"rewardAmount","type":"uint256","indexed":false,"internalType":"uint256"}],"anonymous":false},{"type":"event","name":"Staked","inputs":[{"name":"user","type":"address","indexed":true,"internalType":"address"},{"name":"amount","type":"uint256","indexed":false,"internalType":"uint256"}],"anonymous":false},{"type":"event","name":"Unstaked","inputs":[{"name":"user","type":"address","indexed":true,"internalType":"address"},{"name":"amount","type":"uint256","indexed":false,"internalType":"uint256"}],"anonymous":false},{"type":"error","name":"OwnableInvalidOwner","inputs":[{"name":"owner","type":"address","internalType":"address"}]},{"type":"error","name":"OwnableUnauthorizedAccount","inputs":[{"name":"account","type":"address","internalType":"address"}]},{"type":"error","name":"ReentrancyGuardReentrantCall","inputs":[]},{"type":"error","name":"SafeERC20FailedOperation","inputs":[{"name":"token","type":"address","internalType":"address"}]}],"bytecode":{"object":"0x60806040526064600555348015610014575f80fd5b50604051610b8d380380610b8d833981016040819052610033916100da565b338061005857604051631e4fbdf760e01b81525f600482015260240160405180910390fd5b6100618161008b565b5060018055600280546001600160a01b0319166001600160a01b0392909216919091179055610107565b5f80546001600160a01b038381166001600160a01b0319831681178455604051919092169283917f8be0079c531659141344cd1fd0a4f28419497f9722a3daafe3b4186f6b6457e09190a35050565b5f602082840312156100ea575f80fd5b81516001600160a01b0381168114610100575f80fd5b9392505050565b610a79806101145f395ff3fe608060405234801561000f575f80fd5b50600436106100f0575f3560e01c80637b0a47ee116100935780639ef3a261116100635780639ef3a261146101f1578063a694fc3a14610204578063ab40e84814610217578063f2fde38b1461022a575f80fd5b80637b0a47ee146101a45780637dfbd0ec146101ad578063817b1cd2146101d85780638da5cb5b146101e1575f80fd5b80632e17de78116100ce5780632e17de781461016c578063372500ab1461018157806364ab867514610189578063715018a61461019c575f80fd5b80630bdb3c8c146100f457806316934fc4146101105780632bcf161c14610159575b5f80fd5b6100fd6103e881565b6040519081526020015b60405180910390f35b61013e61011e36600461098f565b60036020525f908152604090208054600182015460029092015490919083565b60408051938452602084019290925290820152606001610107565b6100fd61016736600461098f565b61023d565b61017f61017a3660046109bc565b61024d565b005b61017f6103f9565b6100fd61019736600461098f565b6104b7565b61017f61055f565b6100fd60055481565b6002546101c0906001600160a01b031681565b6040516001600160a01b039091168152602001610107565b6100fd60045481565b5f546001600160a01b03166101c0565b61017f6101ff3660046109bc565b610570565b61017f6102123660046109bc565b6105b3565b61017f61022536600461098f565b6106ca565b61017f61023836600461098f565b6107a1565b5f610247826104b7565b92915050565b6102556107db565b5f81116102a95760405162461bcd60e51b815260206004820152601d60248201527f416d6f756e74206d7573742062652067726561746572207468616e203000000060448201526064015b60405180910390fd5b335f908152600360205260409020548111156103075760405162461bcd60e51b815260206004820152601b60248201527f496e73756666696369656e74207374616b65642062616c616e6365000000000060448201526064016102a0565b5f610311336104b7565b335f908152600360205260408120805492935084929091906103349084906109e7565b9091555050335f90815260036020526040812054900361036157335f908152600360205260408120600101555b335f90815260036020526040812060020180548392906103829084906109fa565b925050819055508160045f82825461039a91906109e7565b90915550506002546103b6906001600160a01b03163384610805565b60405182815233907f0f5bb82176feb1b5e747e28471aa92156a04d9f3ab9f45f28e2d704232b93f75906020015b60405180910390a2506103f660018055565b50565b6104016107db565b5f61040b336104b7565b90505f81116104525760405162461bcd60e51b81526020600482015260136024820152724e6f207265776172647320746f20636c61696d60681b60448201526064016102a0565b335f81815260036020526040808220600281019290925542600190920191909155517ffc30cddea38e2bf4d6ea7d3f9ed3b6ad7f176419f4963bd81318067a4aee73fe906104a39084815260200190565b60405180910390a2506104b560018055565b565b6001600160a01b0381165f908152600360209081526040808320815160608101835281548082526001830154948201949094526002909101549181019190915290820361050657505f92915050565b5f81602001514261051791906109e7565b90505f6201518060055483855f01516105309190610a0d565b61053a9190610a0d565b6105449190610a24565b905080836040015161055691906109fa565b95945050505050565b610567610869565b6104b55f610895565b610578610869565b60058190556040518181527f41d466ebd06fb97e7786086ac8b69b7eb7da798592036251291d34e9791cde019060200160405180910390a150565b6105bb6107db565b5f811161060a5760405162461bcd60e51b815260206004820152601d60248201527f416d6f756e74206d7573742062652067726561746572207468616e203000000060448201526064016102a0565b5f610614336104b7565b335f908152600360205260408120805492935084929091906106379084906109fa565b9091555050335f90815260036020526040812042600182015560020180548392906106639084906109fa565b925050819055508160045f82825461067b91906109fa565b9091555050600254610698906001600160a01b03163330856108e4565b60405182815233907f9e71bc8eea02a63969f509818f2dafb9254532904319f9dbda79b67bd34a5f3d906020016103e4565b6106d2610869565b6001600160a01b0381165f908152600360205260409020546107365760405162461bcd60e51b815260206004820181905260248201527f53747265616d6572206d7573742068617665207374616b656420746f6b656e7360448201526064016102a0565b6001600160a01b0381165f908152600360205260408120546127109061075f906103e890610a0d565b6107699190610a24565b6001600160a01b0383165f908152600360205260408120600201805492935083929091906107989084906109fa565b90915550505050565b6107a9610869565b6001600160a01b0381166107d257604051631e4fbdf760e01b81525f60048201526024016102a0565b6103f681610895565b6002600154036107fe57604051633ee5aeb560e01b815260040160405180910390fd5b6002600155565b6040516001600160a01b0383811660248301526044820183905261086491859182169063a9059cbb906064015b604051602081830303815290604052915060e01b6020820180516001600160e01b038381831617835250505050610923565b505050565b5f546001600160a01b031633146104b55760405163118cdaa760e01b81523360048201526024016102a0565b5f80546001600160a01b038381166001600160a01b0319831681178455604051919092169283917f8be0079c531659141344cd1fd0a4f28419497f9722a3daafe3b4186f6b6457e09190a35050565b6040516001600160a01b03848116602483015283811660448301526064820183905261091d9186918216906323b872dd90608401610832565b50505050565b5f8060205f8451602086015f885af180610942576040513d5f823e3d81fd5b50505f513d91508115610959578060011415610966565b6001600160a01b0384163b155b1561091d57604051635274afe760e01b81526001600160a01b03851660048201526024016102a0565b5f6020828403121561099f575f80fd5b81356001600160a01b03811681146109b5575f80fd5b9392505050565b5f602082840312156109cc575f80fd5b5035919050565b634e487b7160e01b5f52601160045260245ffd5b81810381811115610247576102476109d3565b80820180821115610247576102476109d3565b8082028115828204841417610247576102476109d3565b5f82610a3e57634e487b7160e01b5f52601260045260245ffd5b50049056fea26469706673582212205fbe16ccda51fa3d3ff229b751169f3b3556501b873a6fdc5f5372dca2418d1464736f6c63430008140033","linkReferences":{}},"methodIdentifiers":{"REWARD_PER_TOKEN()":"0bdb3c8c","applyStreamingBonus(address)":"ab40e848","calculateRewards(address)":"64ab8675","claimRewards()":"372500ab","getTotalRewards(address)":"2bcf161c","owner()":"8da5cb5b","paraizoToken()":"7dfbd0ec","renounceOwnership()":"715018a6","rewardRate()":"7b0a47ee","stake(uint256)":"a694fc3a","stakes(address)":"16934fc4","totalStaked()":"817b1cd2","transferOwnership(address)":"f2fde38b","unstake(uint256)":"2e17de78","updateRewardRate(uint256)":"9ef3a261"},"id":36}