{"abi":[{"type":"constructor","inputs":[],"stateMutability":"nonpayable"},{"type":"receive","stateMutability":"payable"},{"type":"function","name":"addSupportedToken","inputs":[{"name":"_token","type":"address","internalType":"address"}],"outputs":[],"stateMutability":"nonpayable"},{"type":"function","name":"ethTipsReceived","inputs":[{"name":"","type":"address","internalType":"address"}],"outputs":[{"name":"","type":"uint256","internalType":"uint256"}],"stateMutability":"view"},{"type":"function","name":"ethTipsSent","inputs":[{"name":"","type":"address","internalType":"address"}],"outputs":[{"name":"","type":"uint256","internalType":"uint256"}],"stateMutability":"view"},{"type":"function","name":"getAvailableEthTips","inputs":[],"outputs":[{"name":"","type":"uint256","internalType":"uint256"}],"stateMutability":"view"},{"type":"function","name":"getAvailableTokenTips","inputs":[{"name":"_token","type":"address","internalType":"address"}],"outputs":[{"name":"","type":"uint256","internalType":"uint256"}],"stateMutability":"view"},{"type":"function","name":"getContractEthBalance","inputs":[],"outputs":[{"name":"","type":"uint256","internalType":"uint256"}],"stateMutability":"view"},{"type":"function","name":"getContractTokenBalance","inputs":[{"name":"_token","type":"address","internalType":"address"}],"outputs":[{"name":"","type":"uint256","internalType":"uint256"}],"stateMutability":"view"},{"type":"function","name":"getTotalEthTips","inputs":[{"name":"_streamer","type":"address","internalType":"address"}],"outputs":[{"name":"","type":"uint256","internalType":"uint256"}],"stateMutability":"view"},{"type":"function","name":"getTotalTokenTips","inputs":[{"name":"_streamer","type":"address","internalType":"address"},{"name":"_token","type":"address","internalType":"address"}],"outputs":[{"name":"","type":"uint256","internalType":"uint256"}],"stateMutability":"view"},{"type":"function","name":"owner","inputs":[],"outputs":[{"name":"","type":"address","internalType":"address"}],"stateMutability":"view"},{"type":"function","name":"renounceOwnership","inputs":[],"outputs":[],"stateMutability":"nonpayable"},{"type":"function","name":"sendEthTip","inputs":[{"name":"_streamer","type":"address","internalType":"address payable"},{"name":"_message","type":"string","internalType":"string"}],"outputs":[],"stateMutability":"payable"},{"type":"function","name":"sendTokenTip","inputs":[{"name":"_streamer","type":"address","internalType":"address"},{"name":"_token","type":"address","internalType":"address"},{"name":"_amount","type":"uint256","internalType":"uint256"},{"name":"_message","type":"string","internalType":"string"}],"outputs":[],"stateMutability":"nonpayable"},{"type":"function","name":"supportedTokens","inputs":[{"name":"","type":"address","internalType":"address"}],"outputs":[{"name":"","type":"bool","internalType":"bool"}],"stateMutability":"view"},{"type":"function","name":"tokenTipsReceived","inputs":[{"name":"","type":"address","internalType":"address"},{"name":"","type":"address","internalType":"address"}],"outputs":[{"name":"","type":"uint256","internalType":"uint256"}],"stateMutability":"view"},{"type":"function","name":"tokenTipsSent","inputs":[{"name":"","type":"address","internalType":"address"},{"name":"","type":"address","internalType":"address"}],"outputs":[{"name":"","type":"uint256","internalType":"uint256"}],"stateMutability":"view"},{"type":"function","name":"transferOwnership","inputs":[{"name":"newOwner","type":"address","internalType":"address"}],"outputs":[],"stateMutability":"nonpayable"},{"type":"function","name":"withdrawEthTips","inputs":[],"outputs":[],"stateMutability":"payable"},{"type":"function","name":"withdrawTokenTips","inputs":[{"name":"_token","type":"address","internalType":"address"}],"outputs":[],"stateMutability":"nonpayable"},{"type":"event","name":"OwnershipTransferred","inputs":[{"name":"previousOwner","type":"address","indexed":true,"internalType":"address"},{"name":"newOwner","type":"address","indexed":true,"internalType":"address"}],"anonymous":false},{"type":"event","name":"TipSent","inputs":[{"name":"from","type":"address","indexed":true,"internalType":"address"},{"name":"to","type":"address","indexed":true,"internalType":"address"},{"name":"amount","type":"uint256","indexed":false,"internalType":"uint256"},{"name":"message","type":"string","indexed":false,"internalType":"string"},{"name":"isTokenTip","type":"bool","indexed":false,"internalType":"bool"}],"anonymous":false},{"type":"event","name":"TipWithdrawn","inputs":[{"name":"to","type":"address","indexed":true,"internalType":"address"},{"name":"amount","type":"uint256","indexed":false,"internalType":"uint256"},{"name":"isTokenTip","type":"bool","indexed":false,"internalType":"bool"}],"anonymous":false},{"type":"error","name":"OwnableInvalidOwner","inputs":[{"name":"owner","type":"address","internalType":"address"}]},{"type":"error","name":"OwnableUnauthorizedAccount","inputs":[{"name":"account","type":"address","internalType":"address"}]},{"type":"error","name":"ReentrancyGuardReentrantCall","inputs":[]},{"type":"error","name":"SafeERC20FailedOperation","inputs":[{"name":"token","type":"address","internalType":"address"}]}],"bytecode":{"object":"0x608060405234801561000f575f80fd5b5060015f55338061003957604051631e4fbdf760e01b81525f600482015260240160405180910390fd5b61004281610048565b50610099565b600180546001600160a01b038381166001600160a01b0319831681179093556040519116919082907f8be0079c531659141344cd1fd0a4f28419497f9722a3daafe3b4186f6b6457e0905f90a35050565b610f20806100a65f395ff3fe608060405260043610610113575f3560e01c8063715018a61161009d578063cf34e48b11610062578063cf34e48b14610325578063e4780f5914610350578063ecf244be14610386578063f2fde38b146103bc578063fe577df3146103db575f80fd5b8063715018a6146102b05780638da5cb5b146102c45780639bd98d20146102eb578063a8a8a45f146102fe578063b85e53291461031d575f80fd5b80635a8a8db1116100e35780635a8a8db1146101d157806360fb4ceb146101f157806368c4ac26146102325780636d69fcaf14610270578063704c12e414610291575f80fd5b806314205e281461011e57806317244ada14610150578063358453b8146101945780634de57d75146101bf575f80fd5b3661011a57005b5f80fd5b348015610129575f80fd5b5061013d610138366004610c6c565b61040f565b6040519081526020015b60405180910390f35b34801561015b575f80fd5b5061013d61016a366004610c8e565b6001600160a01b039182165f90815260046020908152604080832093909416825291909152205490565b34801561019f575f80fd5b5061013d6101ae366004610c6c565b60036020525f908152604090205481565b3480156101ca575f80fd5b504761013d565b3480156101dc575f80fd5b50335f9081526002602052604090205461013d565b3480156101fc575f80fd5b5061013d61020b366004610c6c565b335f9081526004602090815260408083206001600160a01b03949094168352929052205490565b34801561023d575f80fd5b5061026061024c366004610c6c565b60066020525f908152604090205460ff1681565b6040519015158152602001610147565b34801561027b575f80fd5b5061028f61028a366004610c6c565b61047d565b005b34801561029c575f80fd5b5061028f6102ab366004610d62565b6104a8565b3480156102bb575f80fd5b5061028f610661565b3480156102cf575f80fd5b506001546040516001600160a01b039091168152602001610147565b61028f6102f9366004610dca565b610674565b348015610309575f80fd5b5061028f610318366004610c6c565b610822565b61028f61091a565b348015610330575f80fd5b5061013d61033f366004610c6c565b60026020525f908152604090205481565b34801561035b575f80fd5b5061013d61036a366004610c8e565b600460209081525f928352604080842090915290825290205481565b348015610391575f80fd5b5061013d6103a0366004610c8e565b600560209081525f928352604080842090915290825290205481565b3480156103c7575f80fd5b5061028f6103d6366004610c6c565b610a6f565b3480156103e6575f80fd5b5061013d6103f5366004610c6c565b6001600160a01b03165f9081526002602052604090205490565b6040516370a0823160e01b81523060048201525f906001600160a01b038316906370a0823190602401602060405180830381865afa158015610453573d5f803e3d5ffd5b505050506040513d601f19601f820116820180604052508101906104779190610e17565b92915050565b610485610aa9565b6001600160a01b03165f908152600660205260409020805460ff19166001179055565b6104b0610ad6565b6001600160a01b0384166105065760405162461bcd60e51b8152602060048201526018602482015277496e76616c69642073747265616d6572206164647265737360401b60448201526064015b60405180910390fd5b5f82116105255760405162461bcd60e51b81526004016104fd90610e2e565b6001600160a01b0383165f9081526006602052604090205460ff166105825760405162461bcd60e51b8152602060048201526013602482015272151bdad95b881b9bdd081cdd5c1c1bdc9d1959606a1b60448201526064016104fd565b6105976001600160a01b038416333085610afe565b6001600160a01b038085165f908152600460209081526040808320938716835292905290812080548492906105cd908490610e6f565b9091555050335f9081526005602090815260408083206001600160a01b038716845290915281208054849290610604908490610e6f565b90915550506040516001600160a01b0385169033907efce71002e967077b87c7f73bdc3d6e355f165fd10358bedd9dd36c0a271d359061064a9086908690600190610e8e565b60405180910390a361065b60015f55565b50505050565b610669610aa9565b6106725f610b65565b565b61067c610ad6565b6001600160a01b0382166106cd5760405162461bcd60e51b8152602060048201526018602482015277496e76616c69642073747265616d6572206164647265737360401b60448201526064016104fd565b5f34116106ec5760405162461bcd60e51b81526004016104fd90610e2e565b6001600160a01b0382165f9081526002602052604081208054349290610713908490610e6f565b9091555050335f9081526003602052604081208054349290610736908490610e6f565b90915550506040516001600160a01b0383169033907efce71002e967077b87c7f73bdc3d6e355f165fd10358bedd9dd36c0a271d359061077b90349086905f90610e8e565b60405180910390a35f826001600160a01b0316346040515f6040518083038185875af1925050503d805f81146107cc576040519150601f19603f3d011682016040523d82523d5f602084013e6107d1565b606091505b50509050806108145760405162461bcd60e51b815260206004820152600f60248201526e151c985b9cd9995c8819985a5b1959608a1b60448201526064016104fd565b5061081e60015f55565b5050565b3361082b610ad6565b335f9081526004602090815260408083206001600160a01b0386168452909152902054806108a75760405162461bcd60e51b815260206004820152602360248201527f4e6f20746f6b656e207469707320617661696c61626c6520746f20776974686460448201526272617760e81b60648201526084016104fd565b335f8181526004602090815260408083206001600160a01b038816845282528083209290925581518481526001918101919091527f2f8f321d0c38bb1ce79138a1b751a82df97335247f55610408124f601e89e2b2910160405180910390a26108146001600160a01b0384163383610bb6565b33610923610ad6565b335f90815260026020526040902054806109895760405162461bcd60e51b815260206004820152602160248201527f4e6f20455448207469707320617661696c61626c6520746f20776974686472616044820152607760f81b60648201526084016104fd565b335f8181526002602090815260408083208390558051858152918201929092527f2f8f321d0c38bb1ce79138a1b751a82df97335247f55610408124f601e89e2b2910160405180910390a26040515f90339083908381818185875af1925050503d805f8114610a13576040519150601f19603f3d011682016040523d82523d5f602084013e610a18565b606091505b5050905080610a615760405162461bcd60e51b81526020600482015260156024820152741155120815da5d1a191c985dd85b0819985a5b1959605a1b60448201526064016104fd565b5050610a6c60015f55565b50565b610a77610aa9565b6001600160a01b038116610aa057604051631e4fbdf760e01b81525f60048201526024016104fd565b610a6c81610b65565b6001546001600160a01b031633146106725760405163118cdaa760e01b81523360048201526024016104fd565b60025f5403610af857604051633ee5aeb560e01b815260040160405180910390fd5b60025f55565b6040516001600160a01b03848116602483015283811660448301526064820183905261065b9186918216906323b872dd906084015b604051602081830303815290604052915060e01b6020820180516001600160e01b038381831617835250505050610bec565b600180546001600160a01b038381166001600160a01b0319831681179093556040519116919082907f8be0079c531659141344cd1fd0a4f28419497f9722a3daafe3b4186f6b6457e0905f90a35050565b6040516001600160a01b03838116602483015260448201839052610be791859182169063a9059cbb90606401610b33565b505050565b5f8060205f8451602086015f885af180610c0b576040513d5f823e3d81fd5b50505f513d91508115610c22578060011415610c2f565b6001600160a01b0384163b155b1561065b57604051635274afe760e01b81526001600160a01b03851660048201526024016104fd565b6001600160a01b0381168114610a6c575f80fd5b5f60208284031215610c7c575f80fd5b8135610c8781610c58565b9392505050565b5f8060408385031215610c9f575f80fd5b8235610caa81610c58565b91506020830135610cba81610c58565b809150509250929050565b634e487b7160e01b5f52604160045260245ffd5b5f82601f830112610ce8575f80fd5b813567ffffffffffffffff80821115610d0357610d03610cc5565b604051601f8301601f19908116603f01168101908282118183101715610d2b57610d2b610cc5565b81604052838152866020858801011115610d43575f80fd5b836020870160208301375f602085830101528094505050505092915050565b5f805f8060808587031215610d75575f80fd5b8435610d8081610c58565b93506020850135610d9081610c58565b925060408501359150606085013567ffffffffffffffff811115610db2575f80fd5b610dbe87828801610cd9565b91505092959194509250565b5f8060408385031215610ddb575f80fd5b8235610de681610c58565b9150602083013567ffffffffffffffff811115610e01575f80fd5b610e0d85828601610cd9565b9150509250929050565b5f60208284031215610e27575f80fd5b5051919050565b60208082526021908201527f54697020616d6f756e74206d7573742062652067726561746572207468616e206040820152600360fc1b606082015260800190565b8082018082111561047757634e487b7160e01b5f52601160045260245ffd5b8381525f602060608184015284518060608501525f5b81811015610ec057868101830151858201608001528201610ea4565b505f608082860101526080601f19601f83011685010192505050821515604083015294935050505056fea264697066735822122005cbb499a25549e106f6ed6f39067c2eba5a206da6bd2c05d2a9bb45c445131f64736f6c63430008140033","linkReferences":{}},"methodIdentifiers":{"addSupportedToken(address)":"6d69fcaf","ethTipsReceived(address)":"cf34e48b","ethTipsSent(address)":"358453b8","getAvailableEthTips()":"5a8a8db1","getAvailableTokenTips(address)":"60fb4ceb","getContractEthBalance()":"4de57d75","getContractTokenBalance(address)":"14205e28","getTotalEthTips(address)":"fe577df3","getTotalTokenTips(address,address)":"17244ada","owner()":"8da5cb5b","renounceOwnership()":"715018a6","sendEthTip(address,string)":"9bd98d20","sendTokenTip(address,address,uint256,string)":"704c12e4","supportedTokens(address)":"68c4ac26","tokenTipsReceived(address,address)":"e4780f59","tokenTipsSent(address,address)":"ecf244be","transferOwnership(address)":"f2fde38b","withdrawEthTips()":"b85e5329","withdrawTokenTips(address)":"a8a8a45f"},"id":39}