{"abi":[{"type":"constructor","inputs":[],"stateMutability":"nonpayable"},{"type":"receive","stateMutability":"payable"},{"type":"function","name":"MAX_SUB_DURATION","inputs":[],"outputs":[{"name":"","type":"uint256","internalType":"uint256"}],"stateMutability":"view"},{"type":"function","name":"MIN_SUB_DURATION","inputs":[],"outputs":[{"name":"","type":"uint256","internalType":"uint256"}],"stateMutability":"view"},{"type":"function","name":"addSupportedToken","inputs":[{"name":"_token","type":"address","internalType":"address"}],"outputs":[],"stateMutability":"nonpayable"},{"type":"function","name":"cancelSubscription","inputs":[{"name":"_streamer","type":"address","internalType":"address"}],"outputs":[],"stateMutability":"nonpayable"},{"type":"function","name":"checkSubscriptionStatus","inputs":[{"name":"_user","type":"address","internalType":"address"},{"name":"_streamer","type":"address","internalType":"address"}],"outputs":[{"name":"","type":"bool","internalType":"bool"}],"stateMutability":"view"},{"type":"function","name":"ethEarnings","inputs":[{"name":"","type":"address","internalType":"address"}],"outputs":[{"name":"","type":"uint256","internalType":"uint256"}],"stateMutability":"view"},{"type":"function","name":"getAvailableEthEarnings","inputs":[],"outputs":[{"name":"","type":"uint256","internalType":"uint256"}],"stateMutability":"view"},{"type":"function","name":"getAvailableTokenEarnings","inputs":[{"name":"_token","type":"address","internalType":"address"}],"outputs":[{"name":"","type":"uint256","internalType":"uint256"}],"stateMutability":"view"},{"type":"function","name":"getAvailableTokenEarningsForStreamer","inputs":[{"name":"_streamer","type":"address","internalType":"address"}],"outputs":[{"name":"","type":"uint256","internalType":"uint256"}],"stateMutability":"view"},{"type":"function","name":"getContractEthBalance","inputs":[],"outputs":[{"name":"","type":"uint256","internalType":"uint256"}],"stateMutability":"view"},{"type":"function","name":"getContractTokenBalance","inputs":[{"name":"_token","type":"address","internalType":"address"}],"outputs":[{"name":"","type":"uint256","internalType":"uint256"}],"stateMutability":"view"},{"type":"function","name":"getSubscriptionDetails","inputs":[{"name":"_user","type":"address","internalType":"address"},{"name":"_streamer","type":"address","internalType":"address"}],"outputs":[{"name":"startTime","type":"uint256","internalType":"uint256"},{"name":"endTime","type":"uint256","internalType":"uint256"},{"name":"isActive","type":"bool","internalType":"bool"}],"stateMutability":"view"},{"type":"function","name":"getTotalAvailableEarnings","inputs":[],"outputs":[{"name":"","type":"uint256","internalType":"uint256"}],"stateMutability":"view"},{"type":"function","name":"owner","inputs":[],"outputs":[{"name":"","type":"address","internalType":"address"}],"stateMutability":"view"},{"type":"function","name":"renewSubscriptionWithEth","inputs":[{"name":"_streamer","type":"address","internalType":"address"},{"name":"_duration","type":"uint256","internalType":"uint256"}],"outputs":[],"stateMutability":"payable"},{"type":"function","name":"renewSubscriptionWithTokens","inputs":[{"name":"_streamer","type":"address","internalType":"address"},{"name":"_duration","type":"uint256","internalType":"uint256"},{"name":"_token","type":"address","internalType":"address"},{"name":"_amount","type":"uint256","internalType":"uint256"}],"outputs":[],"stateMutability":"nonpayable"},{"type":"function","name":"renounceOwnership","inputs":[],"outputs":[],"stateMutability":"nonpayable"},{"type":"function","name":"subscribeWithEth","inputs":[{"name":"_streamer","type":"address","internalType":"address"},{"name":"_duration","type":"uint256","internalType":"uint256"}],"outputs":[],"stateMutability":"payable"},{"type":"function","name":"subscribeWithTokens","inputs":[{"name":"_streamer","type":"address","internalType":"address"},{"name":"_duration","type":"uint256","internalType":"uint256"},{"name":"_token","type":"address","internalType":"address"},{"name":"_amount","type":"uint256","internalType":"uint256"}],"outputs":[],"stateMutability":"nonpayable"},{"type":"function","name":"subscriptions","inputs":[{"name":"","type":"address","internalType":"address"},{"name":"","type":"address","internalType":"address"}],"outputs":[{"name":"startTime","type":"uint256","internalType":"uint256"},{"name":"endTime","type":"uint256","internalType":"uint256"},{"name":"isActive","type":"bool","internalType":"bool"}],"stateMutability":"view"},{"type":"function","name":"supportedTokens","inputs":[{"name":"","type":"address","internalType":"address"}],"outputs":[{"name":"","type":"bool","internalType":"bool"}],"stateMutability":"view"},{"type":"function","name":"tokenEarnings","inputs":[{"name":"","type":"address","internalType":"address"},{"name":"","type":"address","internalType":"address"}],"outputs":[{"name":"","type":"uint256","internalType":"uint256"}],"stateMutability":"view"},{"type":"function","name":"transferOwnership","inputs":[{"name":"newOwner","type":"address","internalType":"address"}],"outputs":[],"stateMutability":"nonpayable"},{"type":"function","name":"withdrawEthEarnings","inputs":[{"name":"_amount","type":"uint256","internalType":"uint256"}],"outputs":[],"stateMutability":"nonpayable"},{"type":"function","name":"withdrawTokenEarnings","inputs":[{"name":"_token","type":"address","internalType":"address"},{"name":"_amount","type":"uint256","internalType":"uint256"}],"outputs":[],"stateMutability":"nonpayable"},{"type":"event","name":"OwnershipTransferred","inputs":[{"name":"previousOwner","type":"address","indexed":true,"internalType":"address"},{"name":"newOwner","type":"address","indexed":true,"internalType":"address"}],"anonymous":false},{"type":"event","name":"Subscribed","inputs":[{"name":"user","type":"address","indexed":true,"internalType":"address"},{"name":"streamer","type":"address","indexed":true,"internalType":"address"},{"name":"duration","type":"uint256","indexed":false,"internalType":"uint256"},{"name":"amount","type":"uint256","indexed":false,"internalType":"uint256"},{"name":"isTokenSubscription","type":"bool","indexed":false,"internalType":"bool"}],"anonymous":false},{"type":"event","name":"SubscriptionCancelled","inputs":[{"name":"user","type":"address","indexed":true,"internalType":"address"},{"name":"streamer","type":"address","indexed":true,"internalType":"address"}],"anonymous":false},{"type":"event","name":"SubscriptionRenewed","inputs":[{"name":"user","type":"address","indexed":true,"internalType":"address"},{"name":"streamer","type":"address","indexed":true,"internalType":"address"},{"name":"duration","type":"uint256","indexed":false,"internalType":"uint256"},{"name":"amount","type":"uint256","indexed":false,"internalType":"uint256"},{"name":"isTokenSubscription","type":"bool","indexed":false,"internalType":"bool"}],"anonymous":false},{"type":"error","name":"OwnableInvalidOwner","inputs":[{"name":"owner","type":"address","internalType":"address"}]},{"type":"error","name":"OwnableUnauthorizedAccount","inputs":[{"name":"account","type":"address","internalType":"address"}]},{"type":"error","name":"ReentrancyGuardReentrantCall","inputs":[]},{"type":"error","name":"SafeERC20FailedOperation","inputs":[{"name":"token","type":"address","internalType":"address"}]}],"bytecode":{"object":"0x608060405234801561000f575f80fd5b5060015f55338061003957604051631e4fbdf760e01b81525f600482015260240160405180910390fd5b61004281610048565b50610099565b600180546001600160a01b038381166001600160a01b0319831681179093556040519116919082907f8be0079c531659141344cd1fd0a4f28419497f9722a3daafe3b4186f6b6457e0905f90a35050565b6116a1806100a65f395ff3fe608060405260043610610164575f3560e01c8063796dddc4116100cd578063b382c73e11610087578063dbbb196811610062578063dbbb19681461047a578063de2f25a3146104b0578063e97c7e70146104d0578063f2fde38b146104ef575f80fd5b8063b382c73e146103db578063c5dfd6e3146103fa578063cd437dea1461043b575f80fd5b8063796dddc4146103195780638da5cb5b146103385780638ddcb1391461035f57806393d81d581461037e578063a010ab3c1461039d578063a984f153146103c8575f80fd5b80635c5179b41161011e5780635c5179b41461022a5780635fdcdf97146102405780636207d31b1461025757806368c4ac26146102b85780636d69fcaf146102e6578063715018a614610305575f80fd5b806314205e281461016f5780633f3c8954146101a157806342e05888146101d05780634de57d75146101e45780635655680d146101f657806356926c5714610217575f80fd5b3661016b57005b5f80fd5b34801561017a575f80fd5b5061018e61018936600461140b565b61050e565b6040519081526020015b60405180910390f35b3480156101ac575f80fd5b506101c06101bb36600461142b565b61057c565b6040519015158152602001610198565b3480156101db575f80fd5b5061018e6105e3565b3480156101ef575f80fd5b504761018e565b348015610201575f80fd5b5061021561021036600461145c565b610618565b005b61021561022536600461145c565b61073f565b348015610235575f80fd5b5061018e6201518081565b34801561024b575f80fd5b5061018e6301e1338081565b348015610262575f80fd5b5061029b61027136600461142b565b600260208181525f9384526040808520909152918352912080546001820154919092015460ff1683565b604080519384526020840192909252151590820152606001610198565b3480156102c3575f80fd5b506101c06102d236600461140b565b60056020525f908152604090205460ff1681565b3480156102f1575f80fd5b5061021561030036600461140b565b610902565b348015610310575f80fd5b5061021561092d565b348015610324575f80fd5b50610215610333366004611484565b610940565b348015610343575f80fd5b506001546040516001600160a01b039091168152602001610198565b34801561036a575f80fd5b5061021561037936600461149b565b610ab2565b348015610389575f80fd5b5061021561039836600461140b565b610d11565b3480156103a8575f80fd5b5061018e6103b736600461140b565b60036020525f908152604090205481565b6102156103d636600461145c565b610dde565b3480156103e6575f80fd5b5061029b6103f536600461142b565b610f77565b348015610405575f80fd5b5061018e61041436600461140b565b335f9081526004602090815260408083206001600160a01b03949094168352929052205490565b348015610446575f80fd5b5061018e61045536600461140b565b6001600160a01b03165f90815260046020908152604080832083805290915290205490565b348015610485575f80fd5b5061018e61049436600461142b565b600460209081525f928352604080842090915290825290205481565b3480156104bb575f80fd5b50335f9081526003602052604090205461018e565b3480156104db575f80fd5b506102156104ea36600461149b565b610fea565b3480156104fa575f80fd5b5061021561050936600461140b565b611207565b6040516370a0823160e01b81523060048201525f906001600160a01b038316906370a0823190602401602060405180830381865afa158015610552573d5f803e3d5ffd5b505050506040513d601f19601f8201168201806040525081019061057691906114dc565b92915050565b6001600160a01b038083165f90815260026020818152604080842094861684529381528383208451606081018652815481526001820154928101929092529091015460ff16158015938201849052919290916105db5750428160200151115b949350505050565b335f8181526004602090815260408083208380528252808320549383526003909152812054909161061391611507565b905090565b610620611241565b335f9081526004602090815260408083206001600160a01b03861684529091529020548111156106975760405162461bcd60e51b815260206004820152601b60248201527f496e73756666696369656e7420746f6b656e206561726e696e6773000000000060448201526064015b60405180910390fd5b5f81116106e65760405162461bcd60e51b815260206004820152601d60248201527f416d6f756e74206d7573742062652067726561746572207468616e2030000000604482015260640161068e565b335f9081526004602090815260408083206001600160a01b03861684529091528120805483929061071890849061151a565b9091555061073290506001600160a01b0383163383611269565b61073b60015f55565b5050565b610747611241565b6001600160a01b03821661076d5760405162461bcd60e51b815260040161068e9061152d565b5f341161078c5760405162461bcd60e51b815260040161068e90611564565b6201518081101580156107a357506301e133808111155b6107bf5760405162461bcd60e51b815260040161068e906115a7565b335f9081526002602081815260408084206001600160a01b0387168552909152909120015460ff166108335760405162461bcd60e51b815260206004820152601f60248201527f4e6f2061637469766520737562736372697074696f6e20746f2072656e657700604482015260640161068e565b335f9081526002602090815260408083206001600160a01b0386168452909152812060010154610864908390611507565b335f9081526002602090815260408083206001600160a01b0388168452825280832060010184905560039091528120805492935034929091906108a8908490611507565b9091555050604080518381523460208201525f8183015290516001600160a01b0385169133917f851a8dd224a817a783fcb909ec94d0b5b42ce68db2195bc9fb94f42c81d4d65d9181900360600190a35061073b60015f55565b61090a6112cd565b6001600160a01b03165f908152600560205260409020805460ff19166001179055565b6109356112cd565b61093e5f6112fa565b565b610948611241565b335f908152600360205260409020548111156109a65760405162461bcd60e51b815260206004820152601960248201527f496e73756666696369656e7420455448206561726e696e677300000000000000604482015260640161068e565b5f81116109f55760405162461bcd60e51b815260206004820152601d60248201527f416d6f756e74206d7573742062652067726561746572207468616e2030000000604482015260640161068e565b335f9081526003602052604081208054839290610a1390849061151a565b90915550506040515f90339083908381818185875af1925050503d805f8114610a57576040519150601f19603f3d011682016040523d82523d5f602084013e610a5c565b606091505b5050905080610aa55760405162461bcd60e51b81526020600482015260156024820152741155120815da5d1a191c985dd85b0819985a5b1959605a1b604482015260640161068e565b50610aaf60015f55565b50565b610aba611241565b6001600160a01b038416610ae05760405162461bcd60e51b815260040161068e9061152d565b5f8111610aff5760405162461bcd60e51b815260040161068e906115de565b620151808310158015610b1657506301e133808311155b610b325760405162461bcd60e51b815260040161068e906115a7565b6001600160a01b0382165f9081526005602052604090205460ff16610b695760405162461bcd60e51b815260040161068e90611626565b610b7e6001600160a01b03831633308461134b565b335f9081526002602090815260408083206001600160a01b03881684529091528120600101549042821115610bb4575080610bb7565b50425b5f610bc28683611507565b905060405180606001604052808381526020018281526020016001151581525060025f336001600160a01b03166001600160a01b031681526020019081526020015f205f896001600160a01b03166001600160a01b031681526020019081526020015f205f820151815f0155602082015181600101556040820151816002015f6101000a81548160ff0219169083151502179055509050508360045f896001600160a01b03166001600160a01b031681526020019081526020015f205f876001600160a01b03166001600160a01b031681526020019081526020015f205f828254610cad9190611507565b9091555050604080518781526020810186905260018183015290516001600160a01b0389169133917fd38b19993495aaecd8b724dae5aba66885a681f4cbe90b11feb232ef36ed4e359181900360600190a3505050610d0b60015f55565b50505050565b335f9081526002602081815260408084206001600160a01b0386168552909152909120015460ff16610d855760405162461bcd60e51b815260206004820181905260248201527f4e6f2061637469766520737562736372697074696f6e20746f2063616e63656c604482015260640161068e565b335f8181526002602081815260408084206001600160a01b0387168086529252808420909201805460ff1916905590519092917f4f63ff9c987ba9233a93b549bdb283252838f696fe1349ef76a85e2ae7f822e391a350565b610de6611241565b6001600160a01b038216610e0c5760405162461bcd60e51b815260040161068e9061152d565b5f3411610e2b5760405162461bcd60e51b815260040161068e906115de565b620151808110158015610e4257506301e133808111155b610e5e5760405162461bcd60e51b815260040161068e906115a7565b335f9081526002602090815260408083206001600160a01b03861684529091528120600101549042821115610e94575080610e97565b50425b5f610ea28483611507565b6040805160608101825284815260208082018481526001838501818152335f90815260028086528782206001600160a01b038f1683528652878220965187559351928601929092555193909101805460ff1916931515939093179092556003905290812080549293503492909190610f1b908490611507565b9091555050604080518581523460208201525f8183015290516001600160a01b0387169133917fd38b19993495aaecd8b724dae5aba66885a681f4cbe90b11feb232ef36ed4e359181900360600190a350505061073b60015f55565b6001600160a01b038083165f9081526002602081815260408084209486168452938152838320845160608101865281548082526001830154938201849052919093015460ff16158015958401869052939485948594939190610fdc5750428360200151115b935093509350509250925092565b610ff2611241565b6001600160a01b0384166110185760405162461bcd60e51b815260040161068e9061152d565b5f81116110375760405162461bcd60e51b815260040161068e90611564565b62015180831015801561104e57506301e133808311155b61106a5760405162461bcd60e51b815260040161068e906115a7565b335f9081526002602081815260408084206001600160a01b0389168552909152909120015460ff166110de5760405162461bcd60e51b815260206004820152601f60248201527f4e6f2061637469766520737562736372697074696f6e20746f2072656e657700604482015260640161068e565b6001600160a01b0382165f9081526005602052604090205460ff166111155760405162461bcd60e51b815260040161068e90611626565b61112a6001600160a01b03831633308461134b565b335f9081526002602090815260408083206001600160a01b038816845290915281206001015461115b908590611507565b335f9081526002602090815260408083206001600160a01b038a811685529083528184206001018590556004835281842090881684529091528120805492935084929091906111ab908490611507565b9091555050604080518581526020810184905260018183015290516001600160a01b0387169133917f851a8dd224a817a783fcb909ec94d0b5b42ce68db2195bc9fb94f42c81d4d65d9181900360600190a350610d0b60015f55565b61120f6112cd565b6001600160a01b03811661123857604051631e4fbdf760e01b81525f600482015260240161068e565b610aaf816112fa565b60025f540361126357604051633ee5aeb560e01b815260040160405180910390fd5b60025f55565b6040516001600160a01b038381166024830152604482018390526112c891859182169063a9059cbb906064015b604051602081830303815290604052915060e01b6020820180516001600160e01b038381831617835250505050611384565b505050565b6001546001600160a01b0316331461093e5760405163118cdaa760e01b815233600482015260240161068e565b600180546001600160a01b038381166001600160a01b0319831681179093556040519116919082907f8be0079c531659141344cd1fd0a4f28419497f9722a3daafe3b4186f6b6457e0905f90a35050565b6040516001600160a01b038481166024830152838116604483015260648201839052610d0b9186918216906323b872dd90608401611296565b5f8060205f8451602086015f885af1806113a3576040513d5f823e3d81fd5b50505f513d915081156113ba5780600114156113c7565b6001600160a01b0384163b155b15610d0b57604051635274afe760e01b81526001600160a01b038516600482015260240161068e565b80356001600160a01b0381168114611406575f80fd5b919050565b5f6020828403121561141b575f80fd5b611424826113f0565b9392505050565b5f806040838503121561143c575f80fd5b611445836113f0565b9150611453602084016113f0565b90509250929050565b5f806040838503121561146d575f80fd5b611476836113f0565b946020939093013593505050565b5f60208284031215611494575f80fd5b5035919050565b5f805f80608085870312156114ae575f80fd5b6114b7856113f0565b9350602085013592506114cc604086016113f0565b9396929550929360600135925050565b5f602082840312156114ec575f80fd5b5051919050565b634e487b7160e01b5f52601160045260245ffd5b80820180821115610576576105766114f3565b81810381811115610576576105766114f3565b60208082526018908201527f496e76616c69642073747265616d657220616464726573730000000000000000604082015260600190565b60208082526023908201527f52656e6577616c20636f7374206d75737420626520677265617465722074686160408201526206e20360ec1b606082015260800190565b6020808252601d908201527f496e76616c696420737562736372697074696f6e206475726174696f6e000000604082015260600190565b60208082526028908201527f537562736372697074696f6e20636f7374206d75737420626520677265617465604082015267072207468616e20360c41b606082015260800190565b60208082526025908201527f546f6b656e206e6f7420737570706f7274656420666f7220737562736372697060408201526474696f6e7360d81b60608201526080019056fea2646970667358221220380f3da9bb086a0abb4dec42d3df796440ba96c5e1fc10e56d48734a73dd3b5764736f6c63430008140033","linkReferences":{}},"methodIdentifiers":{"MAX_SUB_DURATION()":"5fdcdf97","MIN_SUB_DURATION()":"5c5179b4","addSupportedToken(address)":"6d69fcaf","cancelSubscription(address)":"93d81d58","checkSubscriptionStatus(address,address)":"3f3c8954","ethEarnings(address)":"a010ab3c","getAvailableEthEarnings()":"de2f25a3","getAvailableTokenEarnings(address)":"c5dfd6e3","getAvailableTokenEarningsForStreamer(address)":"cd437dea","getContractEthBalance()":"4de57d75","getContractTokenBalance(address)":"14205e28","getSubscriptionDetails(address,address)":"b382c73e","getTotalAvailableEarnings()":"42e05888","owner()":"8da5cb5b","renewSubscriptionWithEth(address,uint256)":"56926c57","renewSubscriptionWithTokens(address,uint256,address,uint256)":"e97c7e70","renounceOwnership()":"715018a6","subscribeWithEth(address,uint256)":"a984f153","subscribeWithTokens(address,uint256,address,uint256)":"8ddcb139","subscriptions(address,address)":"6207d31b","supportedTokens(address)":"68c4ac26","tokenEarnings(address,address)":"dbbb1968","transferOwnership(address)":"f2fde38b","withdrawEthEarnings(uint256)":"796dddc4","withdrawTokenEarnings(address,uint256)":"5655680d"},"id":38}